:100000000C9460000C9403040C9403040C940304FB
:100010000C9403040C9403040C9403040C94030444
:100020000C9403040C9403040C9403040C94030434
:100030000C9403040C9403040C9403040C94030424
:100040000C9403040C9403040C9403040C94030414
:100050000C9403040C9403040C9403040C94030404
:100060000C9403040C9403040C9403040C940304F4
:100070000C9403040C9403040C9403040C940304E4
:100080000C9403040C9403040C9403040C940304D4
:100090000C9403040C9403040C9403040C940304C4
:1000A0000C9403040C9403040C9403040C940304B4
:1000B0000C94030401000179000814017901B9804E
:1000C00011241FBECFEFD8E0DEBFCDBFE4EBF0E0E0
:1000D00040E017C0B591A59135912591059107FD97
:1000E0000CC095918591EF01F92FE82F05900D92A5
:1000F000A217B307D9F7FE0104C01D92A217B307D8
:10010000E1F7E03CF40731F70E948A000C94E10328
:04011000F894FFCF91
:10011400CF93DF93CDB7DEB72C970FB6F894DEBF3D
:100124000FBECDBF14BE0FB6F894A89580916000A1
:10013400886180936000109260000FBE1092C50029
:1001440087E68093C4001092C00088E08093C100C9
:1001540086E08093C2008FE080937E0080E48093E9
:100164007C0087E880937A0083E091E00E94FC039E
:1001740087E191E00E94FC0385E291E00E94FC0388
:1001840041EB51E064E170E088E893E10E942C02C5
:1001940081E391E00E94FC0380E491E00E94FC036F
:1001A40088EB9BE00E9472038BE491E00E94FC03C5
:1001B40049EA51E064E170E080ED97E00E942C028E
:1001C400E9EAF1E009E911E041EB51E0A1EBB1E02A
:1001D400C12CD12C760170E060E05D0148012191D1
:1001E4003191D5018D919D915D012817390718F43E
:1001F400821B930B02C0872F962FD4018D939D935E
:100204004D01C80ED91EE11CF11CE417F50739F79E
:10021400F694E794D794C794F694E794D794C79444
:10022400C114D104E104F10421F4C12CD12C7601D0
:10023400C394FE2CED2CDC2CCC2429E731E0412C9A
:10024400512C320153941901F801219131918F01FC
:100254002115310539F4D1014D925D926D927C9254
:10026400139715C0C9019695879546015701880EC5
:10027400991EA11CB11CC501B40140E050E00E94CC
:100284002F03D1012D933D934D935C931397B4E0C9
:100294002B0E311CE9E82E16E1E03E06A9F68AE5AC
:1002A40091E00E94FC030F2EF9EA2F2EF1E03F2E7D
:1002B400F02D81EA91E00E940C03E1EAF1E00F2EB7
:1002C400F9E8EF2EF1E0FF2EF02D09E711E00F2EF3
:1002D400F1EB6F2EF1E07F2EF02D812C912C540147
:1002E4006F01D6018D919D916D01F30121913191A1
:1002F4003F018217930728F4A901481B590BCA012F
:1003040002C080E090E0D8012D913D914D915D9126
:100314008D01DC010E94D603BB27A92F982F872FBC
:10032400F70181939193A193B1937F01880E991E54
:10033400AA1EBB1EC214D304A1F681149104A10405
:10034400B10409F482C0C0908D01D0908E01E09078
:100354008F01F09090018091910190919201A09170
:100364009301B091940189839A83AB83BC83A9E8F8
:10037400B1E08D919D910D90BC91A02D8D839E83B4
:10038400AF83B88740909501509096016090970193
:1003940070909801AC01BD01440D551D661D771D7B
:1003A40089819A81AB81BC818C0D9D1DAE1DBF1DC1
:1003B4009A01AB01281B390B4A0B5B0BA8EEB3E087
:1003C4000E94D603A50194010E948D0329873A87D0
:1003D4004B875C878D819E81AF81B885C80ED91EFD
:1003E400EA1EFB1E89819A81AB81BC81840D951D17
:1003F400A61DB71DA7019601281B390B4A0B5B0BE1
:10040400A8EEB3E00E94D603A50194010E948D03D7
:1004140069017A018BE691E00E94B80369857A85C7
:100424008B859C850E9451038EE691E00E94B8035F
:10043400C701B6010E94510380E091E00E94B80315
:100444008AEF90E00E94720334CF82E791E00E9429
:04045400FC03F6CFE0
:100458004F925F926F927F928F929F92AF92BF92CC
:10046800CF92DF92EF92FF920F931F93CF93DF9378
:10047800CDB7DEB768970FB6F894DEBF0FBECDBF15
:100488003B01542E452E0E94A4035B01FE013996C0
:1004980080E1DF011D928A95E9F7672B09F041C0D9
:1004A800AA24A394B12C3DC0CE0101960E940C034E
:1004B800DE0111967E01E9E0EE0EF11C4801F7011C
:1004C8008D919D914081518162817381480F591F9F
:1004D800611D711D4193519361937193E017F10769
:1004E80079F7C3010E947203FFEFCF1ADF0ACA141B
:1004F800DB04D0F2052D142D2501612C712CD701B8
:100508006D917D918D919D917D01A30192010E9434
:100518002F03F801219331938F01E814F90479F737
:1005280006C0C12CD12C8E01075E1F4FBDCF689627
:100538000FB6F894DEBF0FBECDBFDF91CF911F91EC
:100548000F91FF90EF90DF90CF90BF90AF909F906A
:0C0558008F907F906F905F904F900895FF
:100564008F929F92AF92BF92EF92FF921F93CF937D
:10057400DF93CDB7DEB72A970FB6F894DEBF0FBE70
:10058400CDBF611571058105910521F480E30E94B9
:10059400EC0330C020E00F2EFAE08F2E912CA12C1A
:1005A400B12CF02D11E0120FEE24E394F12CEC0E9B
:1005B400FD1EE20EF11CA50194010E942F03605D53
:1005C400F7016083622F732F842F952F212F6115DC
:1005D40071058105910531F7112361F01150E1E0B6
:1005E400F0E0EC0FFD1FE10FF11D80810E94EC0390
:1005F4001111F4CF2A960FB6F894DEBF0FBECDBF0B
:10060400DF91CF911F91FF90EF90BF90AF909F909B
:040614008F90089526
:10061800CF93DF93BC0120E0ACE7B0E0EAE7F0E07D
:1006280048E750E09C91907F322F3F70932B9C932A
:10063800908190649083908196FDFDCFEA01888136
:100648009981EB0189939993BE012F5F243051F76B
:06065800DF91CF9108952F
:10065E00A1E21A2EAA1BBB1BFD010DC0AA1FBB1FB8
:10066E00EE1FFF1FA217B307E407F50720F0A21B2A
:10067E00B30BE40BF50B661F771F881F991F1A9497
:10068E0069F760957095809590959B01AC01BD01C1
:04069E00CF010895EB
:1006A200CF92DF92EF92FF926B017C0199236CF45F
:1006B2008DE20E94EC0366277727CB016C197D0936
:1006C2008E099F090E94B20207C08BE20E94EC03CE
:1006D200C701B6010E94B202FF90EF90DF90CF9067
:0206E200089579
:1006E4000F931F93BFE9AFE0F0E0E0E00FC04B2FA2
:1006F4005A2F6F2F7E2F00008A019B014150510910
:1007040061097109012B022B032BA9F7019778F7D3
:060714001F910F910895F2
:10071A00052E97FB1EF400940E94F40357FD07D0A0
:10072A000E942F0307FC03D04EF40C94F403509557
:0E073A004095309521953F4F4F4F5F4F0895EA
:10074800AA1BBB1B51E107C0AA1FBB1FA617B707EF
:1007580010F0A61BB70B881F991F5A95A9F780950B
:080768009095BC01CD0108953C
:10077000CF93DF93EC018881882331F021960E948A
:0E078000EC0389918111FBCFDF91CF91089599
:10078E00A29FB001B39FC001A39F700D811D1124C4
:0E079E00911DB29F700D811D1124911D0895B3
:1007AC000E94C703A59F900DB49F900DA49F800D30
:0607BC00911D11240895B7
:1007C200EC010E9408040E940704CE010E94090461
:0607D200CE010E940504A7
:1007D800E0ECF0E0908195FFFDCF8093C60008958E
:1007E80090958095709561957F4F8F4F9F4F089595
:0E07F8000E94B80380E091E00E94B8030895CB
:040806000C9400004E
:04080A000E948800C0
:02080E0008954B
:02081000089549
:02081200089547
:100814000D0A00495220747261636B65722073740F
:10082400617274696E67004B656570204C454420A5
:100834006177617900426173656C696E6520357317
:100844000043656E746572204C4544206E6F7700DA
:1008540057616974696E67203373004D6561737500
:1008640072696E67206761696E00547261636B69B7
:100874006E67207374617274656400483D0020568D
:090884003D005345415243480078
:00000001FF
