:100000000C945E000C94CB010C94CB010C94CB01AE
:100010000C94CB010C94CB010C94CB010C94CB0130
:100020000C94CB010C94CB010C94CB010C94CB0120
:100030000C94CB010C94CB010C94CB010C94CB0110
:100040000C94CB010C94CB010C94CB010C94CB0100
:100050000C94CB010C94CB010C94CB010C94CB01F0
:100060000C94CB010C94CB010C94CB010C94CB01E0
:100070000C94CB010C94CB010C94CB010C94CB01D0
:100080000C94CB010C94CB010C94CB010C94CB01C0
:100090000C94CB010C94CB010C94CB010C94CB01B0
:1000A0000C94CB010C94CB010C94CB010C94CB01A0
:1000B0000C94CB01010001680003A40011241FBEB1
:1000C000CFEFD8E0DEBFCDBFE4EBF0E040E017C0FB
:1000D000B591A59135912591059107FD0CC095919C
:1000E0008591EF01F92FE82F05900D92A217B30724
:1000F000D9F7FE0104C01D92A217B307E1F7EB3B4D
:10010000F40731F70E942E010C94C001F894FFCF40
:10011000CF93DF93CDB7DEB785EC90E0FC01108282
:1001200084EC90E027E6FC01208380EC90E0FC0169
:10013000108281EC90E028E1FC01208382EC90E0C9
:1001400026E0FC0120830000DF91CF910895CF933A
:10015000DF93CDB7DEB78DEC90E0FC0110828CEC24
:1001600090E027E6FC01208388EC90E0FC011082FF
:1001700089EC90E028E1FC0120838AEC90E026E005
:10018000FC0120830000DF91CF910895CF93DF938E
:100190000F92CDB7DEB78983000080EC90E0FC01C0
:1001A0008081882F90E080729927892BB1F386ECAB
:1001B00090E02981FC01208300000F90DF91CF9116
:1001C0000895CF93DF9300D0CDB7DEB79A838983AC
:1001D0000BC089819A819C012F5F3F4F3A8329830D
:1001E000FC0180810E94C60089819A81FC01808186
:1001F000882379F700000F900F90DF91CF91089539
:10020000CF93DF9300D0CDB7DEB79A8389838981FE
:100210009A810E94E10080E091E00E94E1000000EC
:100220000F900F90DF91CF910895CF93DF93CDB7CB
:10023000DEB788EC90E0FC018081881F8827881F4A
:10024000DF91CF910895CF93DF93CDB7DEB78EECDA
:1002500090E0FC018081DF91CF910895CF93DF93EF
:10026000CDB7DEB7C354D1090FB6F894DEBF0FBEC9
:10027000CDBF1B8219821A8284E590E0FC011082B6
:100280000FB6F894A8958091600088618093600013
:10029000109260000FBE0E9488000E94A70083E0B9
:1002A00091E00E9400018CE191E00E9400010E9417
:1002B00015018823E1F30E9423018B838B81803217
:1002C000F0F08B818F37D8F48A81882329F087E476
:1002D00091E00E9400011A8289818F3308F04FC09B
:1002E000898191E0980F9983882F90E04B819E013E
:1002F0002C5F3F4F820F931FFC01408340C08B81D6
:100300008D3019F08B818A3001F589818823A1F025
:100310008981882F90E09E012C5F3F4F820F931FB1
:10032000FC01108285E591E00E94E100CE01049677
:100330000E940001198222C08A818823F9F087E493
:1003400091E00E9400011A8219C08981882399F0E6
:100350008981882F90E09E012C5F3F4F820F931F71
:10036000FC01108285E591E00E94E100CE01049637
:100370000E940001198281E08A8399CF000097CF03
:10038000EC010E94D0010E94CF01CE010E94D10158
:06039000CE010E94CD0128
:040396000C940000C3
:04039A000E94860037
:02039E000895C0
:0203A0000895BE
:0203A2000895BC
:1003A4000D0A0054656C656D65747279207265631D
:1003B4006569766572207265616479004C6973744D
:1003C400656E696E67206F6E20555341525431201B
:1003D400616E64207072696E74696E6720746F2038
:1003E4005553415254300052656365697665642003
:1003F40064617461005265636569766564206D6546
:0804040073736167653A200083
:00000001FF
